{
  "_format": "hh-sol-artifact-1",
  "contractName": "BondToken",
  "sourceName": "contracts/BondToken.sol",
  "abi": [
    {
      "inputs": [
        {
          "internalType": "string",
          "name": "name_",
          "type": "string"
        },
        {
          "internalType": "string",
          "name": "symbol_",
          "type": "string"
        },
        {
          "internalType": "address",
          "name": "paymentToken_",
          "type": "address"
        },
        {
          "internalType": "address",
          "name": "issuer_",
          "type": "address"
        },
        {
          "internalType": "uint256",
          "name": "maturityDate_",
          "type": "uint256"
        },
        {
          "internalType": "uint256",
          "name": "totalSupplyCap_",
          "type": "uint256"
        },
        {
          "internalType": "bytes32",
          "name": "loanAgreementHash_",
          "type": "bytes32"
        }
      ],
      "stateMutability": "nonpayable",
      "type": "constructor"
    },
    {
      "inputs": [
        {
          "internalType": "address",
          "name": "spender",
          "type": "address"
        },
        {
          "internalType": "uint256",
          "name": "allowance",
          "type": "uint256"
        },
        {
          "internalType": "uint256",
          "name": "needed",
          "type": "uint256"
        }
      ],
      "name": "ERC20InsufficientAllowance",
      "type": "error"
    },
    {
      "inputs": [
        {
          "internalType": "address",
          "name": "sender",
          "type": "address"
        },
        {
          "internalType": "uint256",
          "name": "balance",
          "type": "uint256"
        },
        {
          "internalType": "uint256",
          "name": "needed",
          "type": "uint256"
        }
      ],
      "name": "ERC20InsufficientBalance",
      "type": "error"
    },
    {
      "inputs": [
        {
          "internalType": "address",
          "name": "approver",
          "type": "address"
        }
      ],
      "name": "ERC20InvalidApprover",
      "type": "error"
    },
    {
      "inputs": [
        {
          "internalType": "address",
          "name": "receiver",
          "type": "address"
        }
      ],
      "name": "ERC20InvalidReceiver",
      "type": "error"
    },
    {
      "inputs": [
        {
          "internalType": "address",
          "name": "sender",
          "type": "address"
        }
      ],
      "name": "ERC20InvalidSender",
      "type": "error"
    },
    {
      "inputs": [
        {
          "internalType": "address",
          "name": "spender",
          "type": "address"
        }
      ],
      "name": "ERC20InvalidSpender",
      "type": "error"
    },
    {
      "inputs": [
        {
          "internalType": "address",
          "name": "owner",
          "type": "address"
        }
      ],
      "name": "OwnableInvalidOwner",
      "type": "error"
    },
    {
      "inputs": [
        {
          "internalType": "address",
          "name": "account",
          "type": "address"
        }
      ],
      "name": "OwnableUnauthorizedAccount",
      "type": "error"
    },
    {
      "inputs": [],
      "name": "ReentrancyGuardReentrantCall",
      "type": "error"
    },
    {
      "anonymous": false,
      "inputs": [
        {
          "indexed": true,
          "internalType": "address",
          "name": "owner",
          "type": "address"
        },
        {
          "indexed": true,
          "internalType": "address",
          "name": "spender",
          "type": "address"
        },
        {
          "indexed": false,
          "internalType": "uint256",
          "name": "value",
          "type": "uint256"
        }
      ],
      "name": "Approval",
      "type": "event"
    },
    {
      "anonymous": false,
      "inputs": [
        {
          "indexed": true,
          "internalType": "address",
          "name": "to",
          "type": "address"
        },
        {
          "indexed": false,
          "internalType": "uint256",
          "name": "amount",
          "type": "uint256"
        }
      ],
      "name": "BondMinted",
      "type": "event"
    },
    {
      "anonymous": false,
      "inputs": [
        {
          "indexed": true,
          "internalType": "bytes32",
          "name": "hash",
          "type": "bytes32"
        },
        {
          "indexed": false,
          "internalType": "uint256",
          "name": "timestamp",
          "type": "uint256"
        }
      ],
      "name": "LoanAgreementSet",
      "type": "event"
    },
    {
      "anonymous": false,
      "inputs": [
        {
          "indexed": true,
          "internalType": "address",
          "name": "previousOwner",
          "type": "address"
        },
        {
          "indexed": true,
          "internalType": "address",
          "name": "newOwner",
          "type": "address"
        }
      ],
      "name": "OwnershipTransferred",
      "type": "event"
    },
    {
      "anonymous": false,
      "inputs": [
        {
          "indexed": true,
          "internalType": "address",
          "name": "holder",
          "type": "address"
        },
        {
          "indexed": false,
          "internalType": "uint256",
          "name": "bondsBurned",
          "type": "uint256"
        },
        {
          "indexed": false,
          "internalType": "uint256",
          "name": "principalAmount",
          "type": "uint256"
        }
      ],
      "name": "PrincipalClaimed",
      "type": "event"
    },
    {
      "anonymous": false,
      "inputs": [
        {
          "indexed": false,
          "internalType": "uint256",
          "name": "amount",
          "type": "uint256"
        },
        {
          "indexed": false,
          "internalType": "uint256",
          "name": "timestamp",
          "type": "uint256"
        }
      ],
      "name": "PrincipalDeposited",
      "type": "event"
    },
    {
      "anonymous": false,
      "inputs": [
        {
          "indexed": true,
          "internalType": "address",
          "name": "from",
          "type": "address"
        },
        {
          "indexed": true,
          "internalType": "address",
          "name": "to",
          "type": "address"
        },
        {
          "indexed": false,
          "internalType": "uint256",
          "name": "value",
          "type": "uint256"
        }
      ],
      "name": "Transfer",
      "type": "event"
    },
    {
      "anonymous": false,
      "inputs": [
        {
          "indexed": true,
          "internalType": "address",
          "name": "holder",
          "type": "address"
        },
        {
          "indexed": false,
          "internalType": "uint256",
          "name": "amount",
          "type": "uint256"
        }
      ],
      "name": "YieldClaimed",
      "type": "event"
    },
    {
      "anonymous": false,
      "inputs": [
        {
          "indexed": false,
          "internalType": "uint256",
          "name": "amount",
          "type": "uint256"
        },
        {
          "indexed": false,
          "internalType": "uint256",
          "name": "checkpointIndex",
          "type": "uint256"
        },
        {
          "indexed": false,
          "internalType": "uint256",
          "name": "timestamp",
          "type": "uint256"
        }
      ],
      "name": "YieldDeposited",
      "type": "event"
    },
    {
      "inputs": [
        {
          "internalType": "address",
          "name": "owner",
          "type": "address"
        },
        {
          "internalType": "address",
          "name": "spender",
          "type": "address"
        }
      ],
      "name": "allowance",
      "outputs": [
        {
          "internalType": "uint256",
          "name": "",
          "type": "uint256"
        }
      ],
      "stateMutability": "view",
      "type": "function"
    },
    {
      "inputs": [
        {
          "internalType": "address",
          "name": "spender",
          "type": "address"
        },
        {
          "internalType": "uint256",
          "name": "value",
          "type": "uint256"
        }
      ],
      "name": "approve",
      "outputs": [
        {
          "internalType": "bool",
          "name": "",
          "type": "bool"
        }
      ],
      "stateMutability": "nonpayable",
      "type": "function"
    },
    {
      "inputs": [
        {
          "internalType": "address",
          "name": "account",
          "type": "address"
        }
      ],
      "name": "balanceOf",
      "outputs": [
        {
          "internalType": "uint256",
          "name": "",
          "type": "uint256"
        }
      ],
      "stateMutability": "view",
      "type": "function"
    },
    {
      "inputs": [],
      "name": "checkMaturity",
      "outputs": [],
      "stateMutability": "nonpayable",
      "type": "function"
    },
    {
      "inputs": [],
      "name": "claimPrincipal",
      "outputs": [],
      "stateMutability": "nonpayable",
      "type": "function"
    },
    {
      "inputs": [],
      "name": "claimYield",
      "outputs": [],
      "stateMutability": "nonpayable",
      "type": "function"
    },
    {
      "inputs": [],
      "name": "decimals",
      "outputs": [
        {
          "internalType": "uint8",
          "name": "",
          "type": "uint8"
        }
      ],
      "stateMutability": "view",
      "type": "function"
    },
    {
      "inputs": [
        {
          "internalType": "uint256",
          "name": "amount",
          "type": "uint256"
        }
      ],
      "name": "depositPrincipal",
      "outputs": [],
      "stateMutability": "nonpayable",
      "type": "function"
    },
    {
      "inputs": [
        {
          "internalType": "uint256",
          "name": "amount",
          "type": "uint256"
        }
      ],
      "name": "depositYield",
      "outputs": [],
      "stateMutability": "nonpayable",
      "type": "function"
    },
    {
      "inputs": [],
      "name": "getBondInfo",
      "outputs": [
        {
          "internalType": "uint256",
          "name": "_maturityDate",
          "type": "uint256"
        },
        {
          "internalType": "uint256",
          "name": "_totalSupply",
          "type": "uint256"
        },
        {
          "internalType": "uint256",
          "name": "_totalSupplyCap",
          "type": "uint256"
        },
        {
          "internalType": "uint256",
          "name": "_totalYieldDeposited",
          "type": "uint256"
        },
        {
          "internalType": "uint256",
          "name": "_totalPrincipalDeposited",
          "type": "uint256"
        },
        {
          "internalType": "bool",
          "name": "_isMatured",
          "type": "bool"
        },
        {
          "internalType": "bool",
          "name": "_principalDeposited",
          "type": "bool"
        },
        {
          "internalType": "uint256",
          "name": "_checkpointCount",
          "type": "uint256"
        },
        {
          "internalType": "bytes32",
          "name": "_loanAgreementHash",
          "type": "bytes32"
        }
      ],
      "stateMutability": "view",
      "type": "function"
    },
    {
      "inputs": [
        {
          "internalType": "address",
          "name": "holder",
          "type": "address"
        }
      ],
      "name": "getUnclaimedYield",
      "outputs": [
        {
          "internalType": "uint256",
          "name": "",
          "type": "uint256"
        }
      ],
      "stateMutability": "view",
      "type": "function"
    },
    {
      "inputs": [],
      "name": "isMatured",
      "outputs": [
        {
          "internalType": "bool",
          "name": "",
          "type": "bool"
        }
      ],
      "stateMutability": "view",
      "type": "function"
    },
    {
      "inputs": [],
      "name": "issuer",
      "outputs": [
        {
          "internalType": "address",
          "name": "",
          "type": "address"
        }
      ],
      "stateMutability": "view",
      "type": "function"
    },
    {
      "inputs": [
        {
          "internalType": "address",
          "name": "",
          "type": "address"
        }
      ],
      "name": "lastClaimedCheckpoint",
      "outputs": [
        {
          "internalType": "uint256",
          "name": "",
          "type": "uint256"
        }
      ],
      "stateMutability": "view",
      "type": "function"
    },
    {
      "inputs": [],
      "name": "loanAgreementHash",
      "outputs": [
        {
          "internalType": "bytes32",
          "name": "",
          "type": "bytes32"
        }
      ],
      "stateMutability": "view",
      "type": "function"
    },
    {
      "inputs": [],
      "name": "maturityDate",
      "outputs": [
        {
          "internalType": "uint256",
          "name": "",
          "type": "uint256"
        }
      ],
      "stateMutability": "view",
      "type": "function"
    },
    {
      "inputs": [
        {
          "internalType": "address",
          "name": "to",
          "type": "address"
        },
        {
          "internalType": "uint256",
          "name": "amount",
          "type": "uint256"
        }
      ],
      "name": "mint",
      "outputs": [],
      "stateMutability": "nonpayable",
      "type": "function"
    },
    {
      "inputs": [],
      "name": "name",
      "outputs": [
        {
          "internalType": "string",
          "name": "",
          "type": "string"
        }
      ],
      "stateMutability": "view",
      "type": "function"
    },
    {
      "inputs": [],
      "name": "owner",
      "outputs": [
        {
          "internalType": "address",
          "name": "",
          "type": "address"
        }
      ],
      "stateMutability": "view",
      "type": "function"
    },
    {
      "inputs": [],
      "name": "paymentToken",
      "outputs": [
        {
          "internalType": "contract IERC20",
          "name": "",
          "type": "address"
        }
      ],
      "stateMutability": "view",
      "type": "function"
    },
    {
      "inputs": [],
      "name": "principalDeposited",
      "outputs": [
        {
          "internalType": "bool",
          "name": "",
          "type": "bool"
        }
      ],
      "stateMutability": "view",
      "type": "function"
    },
    {
      "inputs": [],
      "name": "renounceOwnership",
      "outputs": [],
      "stateMutability": "nonpayable",
      "type": "function"
    },
    {
      "inputs": [
        {
          "internalType": "bytes32",
          "name": "hash_",
          "type": "bytes32"
        }
      ],
      "name": "setLoanAgreementHash",
      "outputs": [],
      "stateMutability": "nonpayable",
      "type": "function"
    },
    {
      "inputs": [],
      "name": "symbol",
      "outputs": [
        {
          "internalType": "string",
          "name": "",
          "type": "string"
        }
      ],
      "stateMutability": "view",
      "type": "function"
    },
    {
      "inputs": [],
      "name": "totalPrincipalDeposited",
      "outputs": [
        {
          "internalType": "uint256",
          "name": "",
          "type": "uint256"
        }
      ],
      "stateMutability": "view",
      "type": "function"
    },
    {
      "inputs": [],
      "name": "totalSupply",
      "outputs": [
        {
          "internalType": "uint256",
          "name": "",
          "type": "uint256"
        }
      ],
      "stateMutability": "view",
      "type": "function"
    },
    {
      "inputs": [],
      "name": "totalSupplyCap",
      "outputs": [
        {
          "internalType": "uint256",
          "name": "",
          "type": "uint256"
        }
      ],
      "stateMutability": "view",
      "type": "function"
    },
    {
      "inputs": [],
      "name": "totalYieldDeposited",
      "outputs": [
        {
          "internalType": "uint256",
          "name": "",
          "type": "uint256"
        }
      ],
      "stateMutability": "view",
      "type": "function"
    },
    {
      "inputs": [
        {
          "internalType": "address",
          "name": "to",
          "type": "address"
        },
        {
          "internalType": "uint256",
          "name": "value",
          "type": "uint256"
        }
      ],
      "name": "transfer",
      "outputs": [
        {
          "internalType": "bool",
          "name": "",
          "type": "bool"
        }
      ],
      "stateMutability": "nonpayable",
      "type": "function"
    },
    {
      "inputs": [
        {
          "internalType": "address",
          "name": "from",
          "type": "address"
        },
        {
          "internalType": "address",
          "name": "to",
          "type": "address"
        },
        {
          "internalType": "uint256",
          "name": "value",
          "type": "uint256"
        }
      ],
      "name": "transferFrom",
      "outputs": [
        {
          "internalType": "bool",
          "name": "",
          "type": "bool"
        }
      ],
      "stateMutability": "nonpayable",
      "type": "function"
    },
    {
      "inputs": [
        {
          "internalType": "address",
          "name": "newOwner",
          "type": "address"
        }
      ],
      "name": "transferOwnership",
      "outputs": [],
      "stateMutability": "nonpayable",
      "type": "function"
    },
    {
      "inputs": [
        {
          "internalType": "uint256",
          "name": "",
          "type": "uint256"
        }
      ],
      "name": "yieldCheckpoints",
      "outputs": [
        {
          "internalType": "uint256",
          "name": "totalYield",
          "type": "uint256"
        },
        {
          "internalType": "uint256",
          "name": "totalSupplySnapshot",
          "type": "uint256"
        },
        {
          "internalType": "uint256",
          "name": "timestamp",
          "type": "uint256"
        }
      ],
      "stateMutability": "view",
      "type": "function"
    }
  ],
  "bytecode": "0x6101006040523480156200001257600080fd5b506040516200206138038062002061833981016040819052620000359162000415565b338787600362000046838262000550565b50600462000055828262000550565b5050506001620000716200006e620002bd60201b60201c565b90565b556001600160a01b038116620000a257604051631e4fbdf760e01b8152600060048201526024015b60405180910390fd5b620000ad81620002e1565b506001600160a01b038516620001065760405162461bcd60e51b815260206004820152601560248201527f496e76616c6964207061796d656e7420746f6b656e0000000000000000000000604482015260640162000099565b6001600160a01b0384166200014f5760405162461bcd60e51b815260206004820152600e60248201526d24b73b30b634b21034b9b9bab2b960911b604482015260640162000099565b428311620001a05760405162461bcd60e51b815260206004820152601a60248201527f4d61747572697479206d75737420626520696e20667574757265000000000000604482015260640162000099565b60008211620001f25760405162461bcd60e51b815260206004820152601b60248201527f537570706c7920636170206d75737420626520706f7369746976650000000000604482015260640162000099565b80620002595760405162461bcd60e51b815260206004820152602f60248201527f4c6f616e2061677265656d656e74206d757374206265207369676e656420626560448201526e199bdc994819195c1b1bde5b595b9d608a1b606482015260840162000099565b6001600160a01b03858116608052841660e05260a083905260c0829052600681905560405142815281907f4e49f1b351a54c21960d1286c240bba8acb3aa6968f90fe3b845903ff3312d429060200160405180910390a2505050505050506200061c565b7f9b779b17422d0df92223018b32b4d1fa46e071723d6817e2486d003becc55f0090565b600580546001600160a01b038381166001600160a01b0319831681179093556040519116919082907f8be0079c531659141344cd1fd0a4f28419497f9722a3daafe3b4186f6b6457e090600090a35050565b634e487b7160e01b600052604160045260246000fd5b600082601f8301126200035b57600080fd5b81516001600160401b038082111562000378576200037862000333565b604051601f8301601f19908116603f01168101908282118183101715620003a357620003a362000333565b81604052838152602092508683858801011115620003c057600080fd5b600091505b83821015620003e45785820183015181830184015290820190620003c5565b600093810190920192909252949350505050565b80516001600160a01b03811681146200041057600080fd5b919050565b600080600080600080600060e0888a0312156200043157600080fd5b87516001600160401b03808211156200044957600080fd5b620004578b838c0162000349565b985060208a01519150808211156200046e57600080fd5b506200047d8a828b0162000349565b9650506200048e60408901620003f8565b94506200049e60608901620003f8565b93506080880151925060a0880151915060c0880151905092959891949750929550565b600181811c90821680620004d657607f821691505b602082108103620004f757634e487b7160e01b600052602260045260246000fd5b50919050565b601f8211156200054b57600081815260208120601f850160051c81016020861015620005265750805b601f850160051c820191505b81811015620005475782815560010162000532565b5050505b505050565b81516001600160401b038111156200056c576200056c62000333565b62000584816200057d8454620004c1565b84620004fd565b602080601f831160018114620005bc5760008415620005a35750858301515b600019600386901b1c1916600185901b17855562000547565b600085815260208120601f198616915b82811015620005ed57888601518255948401946001909101908401620005cc565b50858210156200060c5787850151600019600388901b60f8161c191681555b5050505050600190811b01905550565b60805160a05160c05160e0516119cc62000695600039600061024d0152600081816103b70152818161078d0152610ebf01526000818161042e01528181610e8c01528181610eec0152610f5501526000818161029f0152818161068301528181610af901528181610cd001526110b101526119cc6000f3fe608060405234801561001057600080fd5b50600436106101f05760003560e01c80637f2b6a0d1161010f578063d59624b4116100a2578063f0f693bf11610071578063f0f693bf146104a4578063f2fde38b146104d2578063f5fd3314146104e5578063fec5fe61146104f857600080fd5b8063d59624b414610429578063dc38710a14610450578063dd62ed3e14610458578063ef8d49641461049157600080fd5b8063a9059cbb116100de578063a9059cbb14610396578063b63d2c5f146103a9578063bb102aea146103b2578063d5070b3e146103d957600080fd5b80637f2b6a0d146103675780638070bb28146103745780638da5cb5b1461037d57806395d89b411461038e57600080fd5b806340c10f1911610187578063715018a611610156578063715018a61461033257806376aaa15f1461033a5780637ba32ee31461034c5780637cf4c01b1461035457600080fd5b806340c10f19146102da578063687c9db0146102ed57806370752935146102f657806370a082311461030957600080fd5b806323b872dd116101c357806323b872dd146102875780633013ce291461029a578063313ce567146102c1578063406cf229146102d057600080fd5b806306fdde03146101f5578063095ea7b31461021357806318160ddd146102365780631d14384814610248575b600080fd5b6101fd610518565b60405161020a9190611738565b60405180910390f35b6102266102213660046117a2565b6105aa565b604051901515815260200161020a565b6002545b60405190815260200161020a565b61026f7f000000000000000000000000000000000000000000000000000000000000000081565b6040516001600160a01b03909116815260200161020a565b6102266102953660046117cc565b6105c4565b61026f7f000000000000000000000000000000000000000000000000000000000000000081565b6040516012815260200161020a565b6102d86105e8565b005b6102d86102e83660046117a2565b610783565b61023a60075481565b6102d8610304366004611808565b61089a565b61023a610317366004611821565b6001600160a01b031660009081526020819052604090205490565b6102d8610990565b60095461022690610100900460ff1681565b6102d86109a2565b6102d8610362366004611808565b610c0e565b6009546102269060ff1681565b61023a60085481565b6005546001600160a01b031661026f565b6101fd610e5f565b6102266103a43660046117a2565b610e6e565b61023a60065481565b61023a7f000000000000000000000000000000000000000000000000000000000000000081565b6103e1610e7c565b60408051998a5260208a01989098529688019590955260608701939093526080860191909152151560a0850152151560c084015260e08301526101008201526101200161020a565b61023a7f000000000000000000000000000000000000000000000000000000000000000081565b6102d8610f45565b61023a610466366004611843565b6001600160a01b03918216600090815260016020908152604080832093909416825291909152205490565b6102d861049f366004611808565b610f8c565b6104b76104b2366004611808565b6111ad565b6040805193845260208401929092529082015260600161020a565b6102d86104e0366004611821565b6111e0565b61023a6104f3366004611821565b61121b565b61023a610506366004611821565b600b6020526000908152604090205481565b60606003805461052790611876565b80601f016020809104026020016040519081016040528092919081815260200182805461055390611876565b80156105a05780601f10610575576101008083540402835291602001916105a0565b820191906000526020600020905b81548152906001019060200180831161058357829003601f168201915b5050505050905090565b6000336105b881858561130e565b60019150505b92915050565b6000336105d2858285611320565b6105dd85858561139f565b506001949350505050565b6105f06113fe565b60006105fb3361121b565b9050600081116106465760405162461bcd60e51b81526020600482015260116024820152704e6f207969656c6420746f20636c61696d60781b60448201526064015b60405180910390fd5b600a54336000818152600b60205260409081902092909255905163a9059cbb60e01b81526004810191909152602481018290526001600160a01b037f0000000000000000000000000000000000000000000000000000000000000000169063a9059cbb906044016020604051808303816000875af11580156106cc573d6000803e3d6000fd5b505050506040513d601f19601f820116820180604052508101906106f091906118b0565b6107345760405162461bcd60e51b8152602060048201526015602482015274165a595b19081d1c985b9cd9995c8819985a5b1959605a1b604482015260640161063d565b60405181815233907fc04825ba3f383b602255d2a13065a68e325c65c9e0ed5d031ea2b06f641873af9060200160405180910390a250610781600160008051602061197783398151915255565b565b61078b61141a565b7f0000000000000000000000000000000000000000000000000000000000000000816107b660025490565b6107c091906118e8565b11156108035760405162461bcd60e51b815260206004820152601260248201527104578636565647320737570706c79206361760741b604482015260640161063d565b60095460ff16156108495760405162461bcd60e51b815260206004820152601060248201526f109bdb99081a185cc81b585d1d5c995960821b604482015260640161063d565b6108538282611447565b816001600160a01b03167f6f57b37eff8d84b3d903efc52266357bde93b4ad8c77347b6f32e48991f61d338260405161088e91815260200190565b60405180910390a25050565b6108a261141a565b806108e55760405162461bcd60e51b8152602060048201526013602482015272486173682063616e6e6f74206265207a65726f60681b604482015260640161063d565b600654156109535760405162461bcd60e51b815260206004820152603560248201527f4c6f616e2041677265656d656e74206861736820616c72656164792073657420604482015274185b990818d85b9b9bdd0818994818da185b99d959605a1b606482015260840161063d565b600681905560405142815281907f4e49f1b351a54c21960d1286c240bba8acb3aa6968f90fe3b845903ff3312d429060200160405180910390a250565b61099861141a565b6107816000611481565b6109aa6113fe565b6109b2610f45565b60095460ff166109fb5760405162461bcd60e51b8152602060048201526014602482015273109bdb99081b9bdd081e595d081b585d1d5c995960621b604482015260640161063d565b600954610100900460ff16610a5c5760405162461bcd60e51b815260206004820152602160248201527f5072696e636970616c206e6f74206465706f73697465642062792069737375656044820152603960f91b606482015260840161063d565b3360009081526020819052604090205480610aae5760405162461bcd60e51b81526020600482015260126024820152714e6f20626f6e647320746f2072656465656d60701b604482015260640161063d565b6000610ab960025490565b82600854610ac791906118fb565b610ad19190611912565b9050610add33836114d3565b60405163a9059cbb60e01b8152336004820152602481018290527f00000000000000000000000000000000000000000000000000000000000000006001600160a01b03169063a9059cbb906044016020604051808303816000875af1158015610b4a573d6000803e3d6000fd5b505050506040513d601f19601f82011682018060405250810190610b6e91906118b0565b610bba5760405162461bcd60e51b815260206004820152601960248201527f5072696e636970616c207472616e73666572206661696c656400000000000000604482015260640161063d565b604080518381526020810183905233917f57dfabdf80ffaad6b2df1cf5144ecf23381595680550ba242fdbc28c49299013910160405180910390a25050610781600160008051602061197783398151915255565b610c166113fe565b60008111610c605760405162461bcd60e51b8152602060048201526017602482015276416d6f756e74206d75737420626520706f73697469766560481b604482015260640161063d565b6000610c6b60025490565b11610cae5760405162461bcd60e51b8152602060048201526013602482015272139bc8189bdb991cc81a5cdcdd5959081e595d606a1b604482015260640161063d565b6040516323b872dd60e01b8152336004820152306024820152604481018290527f00000000000000000000000000000000000000000000000000000000000000006001600160a01b0316906323b872dd906064016020604051808303816000875af1158015610d21573d6000803e3d6000fd5b505050506040513d601f19601f82011682018060405250810190610d4591906118b0565b610d835760405162461bcd60e51b815260206004820152600f60248201526e151c985b9cd9995c8819985a5b1959608a1b604482015260640161063d565b600a6040518060600160405280838152602001610d9f60025490565b81524260209182015282546001818101855560009485528285208451600390930201918255918301519181019190915560409091015160029091015560078054839290610ded9084906118e8565b9091555050600a547f7dc3e8d1940333b093f7f5c4210006bca8607c5c022e84a8f89a1d5ff9789890908290610e2590600190611934565b60408051928352602083019190915242908201526060015b60405180910390a1610e5c600160008051602061197783398151915255565b50565b60606004805461052790611876565b6000336105b881858561139f565b60008060008060008060008060007f0000000000000000000000000000000000000000000000000000000000000000610eb460025490565b6007546008546009547f000000000000000000000000000000000000000000000000000000000000000092919060ff1680610f0f57507f00000000000000000000000000000000000000000000000000000000000000004210155b600960019054906101000a900460ff16600a80549050600654985098509850985098509850985098509850909192939495969798565b60095460ff16158015610f7857507f00000000000000000000000000000000000000000000000000000000000000004210155b15610781576009805460ff19166001179055565b610f9461141a565b610f9c6113fe565b610fa4610f45565b60095460ff16610fed5760405162461bcd60e51b8152602060048201526014602482015273109bdb99081b9bdd081e595d081b585d1d5c995960621b604482015260640161063d565b600954610100900460ff16156110455760405162461bcd60e51b815260206004820152601b60248201527f5072696e636970616c20616c7265616479206465706f73697465640000000000604482015260640161063d565b6000811161108f5760405162461bcd60e51b8152602060048201526017602482015276416d6f756e74206d75737420626520706f73697469766560481b604482015260640161063d565b6040516323b872dd60e01b8152336004820152306024820152604481018290527f00000000000000000000000000000000000000000000000000000000000000006001600160a01b0316906323b872dd906064016020604051808303816000875af1158015611102573d6000803e3d6000fd5b505050506040513d601f19601f8201168201806040525081019061112691906118b0565b6111645760405162461bcd60e51b815260206004820152600f60248201526e151c985b9cd9995c8819985a5b1959608a1b604482015260640161063d565b60088190556009805461ff001916610100179055604080518281524260208201527f193de19e12e030037a5fe736f793656c18a6f0220fb517c9b33013970adf1e789101610e3d565b600a81815481106111bd57600080fd5b600091825260209091206003909102018054600182015460029092015490925083565b6111e861141a565b6001600160a01b03811661121257604051631e4fbdf760e01b81526000600482015260240161063d565b610e5c81611481565b6000808061123e846001600160a01b031660009081526020819052604090205490565b905080600003611252575060009392505050565b6001600160a01b0384166000908152600b6020526040902054805b600a54811015611304576000600a828154811061128c5761128c611947565b90600052602060002090600302016040518060600160405290816000820154815260200160018201548152602001600282015481525050905080602001518482600001516112da91906118fb565b6112e49190611912565b6112ee90866118e8565b94505080806112fc9061195d565b91505061126d565b5091949350505050565b61131b8383836001611509565b505050565b6001600160a01b03838116600090815260016020908152604080832093861683529290522054600019811015611399578181101561138a57604051637dc7a0d960e11b81526001600160a01b0384166004820152602481018290526044810183905260640161063d565b61139984848484036000611509565b50505050565b6001600160a01b0383166113c957604051634b637e8f60e11b81526000600482015260240161063d565b6001600160a01b0382166113f35760405163ec442f0560e01b81526000600482015260240161063d565b61131b8383836115de565b611406611708565b600260008051602061197783398151915255565b6005546001600160a01b031633146107815760405163118cdaa760e01b815233600482015260240161063d565b6001600160a01b0382166114715760405163ec442f0560e01b81526000600482015260240161063d565b61147d600083836115de565b5050565b600580546001600160a01b038381166001600160a01b0319831681179093556040519116919082907f8be0079c531659141344cd1fd0a4f28419497f9722a3daafe3b4186f6b6457e090600090a35050565b6001600160a01b0382166114fd57604051634b637e8f60e11b81526000600482015260240161063d565b61147d826000836115de565b6001600160a01b0384166115335760405163e602df0560e01b81526000600482015260240161063d565b6001600160a01b03831661155d57604051634a1406b160e11b81526000600482015260240161063d565b6001600160a01b038085166000908152600160209081526040808320938716835292905220829055801561139957826001600160a01b0316846001600160a01b03167f8c5be1e5ebec7d5bd14f71427d1e84f3dd0314c0f7b2291e5b200ac8c7c3b925846040516115d091815260200190565b60405180910390a350505050565b6001600160a01b0383166116095780600260008282546115fe91906118e8565b9091555061167b9050565b6001600160a01b0383166000908152602081905260409020548181101561165c5760405163391434e360e21b81526001600160a01b0385166004820152602481018290526044810183905260640161063d565b6001600160a01b03841660009081526020819052604090209082900390555b6001600160a01b038216611697576002805482900390556116b6565b6001600160a01b03821660009081526020819052604090208054820190555b816001600160a01b0316836001600160a01b03167fddf252ad1be2c89b69c2b068fc378daa952ba7f163c4a11628f55a4df523b3ef836040516116fb91815260200190565b60405180910390a3505050565b6000805160206119778339815191525460020361078157604051633ee5aeb560e01b815260040160405180910390fd5b600060208083528351808285015260005b8181101561176557858101830151858201604001528201611749565b506000604082860101526040601f19601f8301168501019250505092915050565b80356001600160a01b038116811461179d57600080fd5b919050565b600080604083850312156117b557600080fd5b6117be83611786565b946020939093013593505050565b6000806000606084860312156117e157600080fd5b6117ea84611786565b92506117f860208501611786565b9150604084013590509250925092565b60006020828403121561181a57600080fd5b5035919050565b60006020828403121561183357600080fd5b61183c82611786565b9392505050565b6000806040838503121561185657600080fd5b61185f83611786565b915061186d60208401611786565b90509250929050565b600181811c9082168061188a57607f821691505b6020821081036118aa57634e487b7160e01b600052602260045260246000fd5b50919050565b6000602082840312156118c257600080fd5b8151801515811461183c57600080fd5b634e487b7160e01b600052601160045260246000fd5b808201808211156105be576105be6118d2565b80820281158282048414176105be576105be6118d2565b60008261192f57634e487b7160e01b600052601260045260246000fd5b500490565b818103818111156105be576105be6118d2565b634e487b7160e01b600052603260045260246000fd5b60006001820161196f5761196f6118d2565b506001019056fe9b779b17422d0df92223018b32b4d1fa46e071723d6817e2486d003becc55f00a2646970667358221220819b964129fdbb051a9b663d6eecc7fcde9052a837b698f6a806e1855035c9ff64736f6c63430008140033",
  "linkReferences": {},
  "deployedLinkReferences": {}
}