{
  "_format": "hh-sol-artifact-1",
  "contractName": "BondExchange",
  "sourceName": "contracts/BondExchange.sol",
  "abi": [
    {
      "inputs": [
        {
          "internalType": "address",
          "name": "paymentToken_",
          "type": "address"
        }
      ],
      "stateMutability": "nonpayable",
      "type": "constructor"
    },
    {
      "inputs": [
        {
          "internalType": "address",
          "name": "owner",
          "type": "address"
        }
      ],
      "name": "OwnableInvalidOwner",
      "type": "error"
    },
    {
      "inputs": [
        {
          "internalType": "address",
          "name": "account",
          "type": "address"
        }
      ],
      "name": "OwnableUnauthorizedAccount",
      "type": "error"
    },
    {
      "inputs": [],
      "name": "ReentrancyGuardReentrantCall",
      "type": "error"
    },
    {
      "anonymous": false,
      "inputs": [
        {
          "indexed": true,
          "internalType": "address",
          "name": "bondToken",
          "type": "address"
        },
        {
          "indexed": true,
          "internalType": "address",
          "name": "buyer",
          "type": "address"
        },
        {
          "indexed": true,
          "internalType": "address",
          "name": "issuer",
          "type": "address"
        },
        {
          "indexed": false,
          "internalType": "uint256",
          "name": "amount",
          "type": "uint256"
        },
        {
          "indexed": false,
          "internalType": "uint256",
          "name": "payment",
          "type": "uint256"
        },
        {
          "indexed": false,
          "internalType": "uint256",
          "name": "timestamp",
          "type": "uint256"
        }
      ],
      "name": "BondSold",
      "type": "event"
    },
    {
      "anonymous": false,
      "inputs": [
        {
          "indexed": true,
          "internalType": "address",
          "name": "previousOwner",
          "type": "address"
        },
        {
          "indexed": true,
          "internalType": "address",
          "name": "newOwner",
          "type": "address"
        }
      ],
      "name": "OwnershipTransferred",
      "type": "event"
    },
    {
      "inputs": [],
      "name": "bondFactory",
      "outputs": [
        {
          "internalType": "address",
          "name": "",
          "type": "address"
        }
      ],
      "stateMutability": "view",
      "type": "function"
    },
    {
      "inputs": [
        {
          "internalType": "address",
          "name": "",
          "type": "address"
        }
      ],
      "name": "bondPrices",
      "outputs": [
        {
          "internalType": "uint256",
          "name": "",
          "type": "uint256"
        }
      ],
      "stateMutability": "view",
      "type": "function"
    },
    {
      "inputs": [
        {
          "internalType": "address",
          "name": "bondToken_",
          "type": "address"
        },
        {
          "internalType": "uint256",
          "name": "amount_",
          "type": "uint256"
        }
      ],
      "name": "buyFromExchange",
      "outputs": [],
      "stateMutability": "nonpayable",
      "type": "function"
    },
    {
      "inputs": [],
      "name": "owner",
      "outputs": [
        {
          "internalType": "address",
          "name": "",
          "type": "address"
        }
      ],
      "stateMutability": "view",
      "type": "function"
    },
    {
      "inputs": [],
      "name": "paymentToken",
      "outputs": [
        {
          "internalType": "contract IERC20",
          "name": "",
          "type": "address"
        }
      ],
      "stateMutability": "view",
      "type": "function"
    },
    {
      "inputs": [],
      "name": "renounceOwnership",
      "outputs": [],
      "stateMutability": "nonpayable",
      "type": "function"
    },
    {
      "inputs": [
        {
          "internalType": "address",
          "name": "factory_",
          "type": "address"
        }
      ],
      "name": "setBondFactoryAddress",
      "outputs": [],
      "stateMutability": "nonpayable",
      "type": "function"
    },
    {
      "inputs": [
        {
          "internalType": "address",
          "name": "bondToken_",
          "type": "address"
        },
        {
          "internalType": "uint256",
          "name": "price_",
          "type": "uint256"
        }
      ],
      "name": "setBondPrice",
      "outputs": [],
      "stateMutability": "nonpayable",
      "type": "function"
    },
    {
      "inputs": [
        {
          "internalType": "address",
          "name": "newOwner",
          "type": "address"
        }
      ],
      "name": "transferOwnership",
      "outputs": [],
      "stateMutability": "nonpayable",
      "type": "function"
    }
  ],
  "bytecode": "0x60a060405234801561001057600080fd5b50604051610b7f380380610b7f83398101604081905261002f9161013b565b60017f9b779b17422d0df92223018b32b4d1fa46e071723d6817e2486d003becc55f0055338061007a57604051631e4fbdf760e01b8152600060048201526024015b60405180910390fd5b610083816100eb565b506001600160a01b0381166100da5760405162461bcd60e51b815260206004820152601560248201527f496e76616c6964207061796d656e7420746f6b656e00000000000000000000006044820152606401610071565b6001600160a01b031660805261016b565b600080546001600160a01b038381166001600160a01b0319831681178455604051919092169283917f8be0079c531659141344cd1fd0a4f28419497f9722a3daafe3b4186f6b6457e09190a35050565b60006020828403121561014d57600080fd5b81516001600160a01b038116811461016457600080fd5b9392505050565b6080516109f361018c60003960008181609d01526104be01526109f36000f3fe608060405234801561001057600080fd5b50600436106100935760003560e01c8063697b009311610066578063697b009314610117578063715018a61461012a5780638da5cb5b14610132578063b67afd8814610143578063f2fde38b1461017157600080fd5b80633013ce29146100985780633b2cb7ca146100dc578063576e4151146100f15780635ec28bb514610104575b600080fd5b6100bf7f000000000000000000000000000000000000000000000000000000000000000081565b6040516001600160a01b0390911681526020015b60405180910390f35b6100ef6100ea3660046108c8565b610184565b005b6001546100bf906001600160a01b031681565b6100ef6101123660046108ec565b610209565b6100ef6101253660046108ec565b6106ad565b6100ef610774565b6000546001600160a01b03166100bf565b6101636101513660046108c8565b60026020526000908152604090205481565b6040519081526020016100d3565b6100ef61017f3660046108c8565b610788565b61018c6107c6565b6001600160a01b0381166101e75760405162461bcd60e51b815260206004820152601760248201527f496e76616c696420666163746f7279206164647265737300000000000000000060448201526064015b60405180910390fd5b600180546001600160a01b0319166001600160a01b0392909216919091179055565b6102116107f3565b6001600160a01b03821661025c5760405162461bcd60e51b815260206004820152601260248201527124b73b30b634b2103137b732103a37b5b2b760711b60448201526064016101de565b600081116102ac5760405162461bcd60e51b815260206004820152601760248201527f416d6f756e74206d75737420626520706f73697469766500000000000000000060448201526064016101de565b6040516370a0823160e01b81523060048201526000906001600160a01b038416906370a0823190602401602060405180830381865afa1580156102f3573d6000803e3d6000fd5b505050506040513d601f19601f820116820180604052508101906103179190610918565b9050818110156103695760405162461bcd60e51b815260206004820152601d60248201527f496e73756666696369656e742065786368616e67652062616c616e636500000060448201526064016101de565b6001600160a01b038316600090815260026020526040902054806103c45760405162461bcd60e51b8152602060048201526012602482015271109bdb99081c1c9a58d9481b9bdd081cd95d60721b60448201526064016101de565b6000670de0b6b3a76400006103d98584610931565b6103e3919061095c565b90506000856001600160a01b0316631d1438486040518163ffffffff1660e01b8152600401602060405180830381865afa158015610425573d6000803e3d6000fd5b505050506040513d601f19601f82011682018060405250810190610449919061097e565b90506001600160a01b0381166104925760405162461bcd60e51b815260206004820152600e60248201526d24b73b30b634b21034b9b9bab2b960911b60448201526064016101de565b6040516323b872dd60e01b81523360048201526001600160a01b038281166024830152604482018490527f000000000000000000000000000000000000000000000000000000000000000016906323b872dd906064016020604051808303816000875af1158015610507573d6000803e3d6000fd5b505050506040513d601f19601f8201168201806040525081019061052b919061099b565b6105775760405162461bcd60e51b815260206004820152601760248201527f5061796d656e74207472616e73666572206661696c656400000000000000000060448201526064016101de565b60405163a9059cbb60e01b8152336004820152602481018690526001600160a01b0387169063a9059cbb906044016020604051808303816000875af11580156105c4573d6000803e3d6000fd5b505050506040513d601f19601f820116820180604052508101906105e8919061099b565b61062b5760405162461bcd60e51b8152602060048201526014602482015273109bdb99081d1c985b9cd9995c8819985a5b195960621b60448201526064016101de565b6040805186815260208101849052428183015290516001600160a01b03838116923392918a16917f2395f456b577479cf117c520e6252b2e9868ec50e46d16db612d492828c505999181900360600190a4505050506106a960017f9b779b17422d0df92223018b32b4d1fa46e071723d6817e2486d003becc55f0055565b5050565b6000546001600160a01b03163314806106d057506001546001600160a01b031633145b61070d5760405162461bcd60e51b815260206004820152600e60248201526d139bdd08185d5d1a1bdc9a5e995960921b60448201526064016101de565b6001600160a01b0382166107585760405162461bcd60e51b815260206004820152601260248201527124b73b30b634b2103137b732103a37b5b2b760711b60448201526064016101de565b6001600160a01b03909116600090815260026020526040902055565b61077c6107c6565b6107866000610821565b565b6107906107c6565b6001600160a01b0381166107ba57604051631e4fbdf760e01b8152600060048201526024016101de565b6107c381610821565b50565b6000546001600160a01b031633146107865760405163118cdaa760e01b81523360048201526024016101de565b6107fb610871565b60027f9b779b17422d0df92223018b32b4d1fa46e071723d6817e2486d003becc55f0055565b600080546001600160a01b038381166001600160a01b0319831681178455604051919092169283917f8be0079c531659141344cd1fd0a4f28419497f9722a3daafe3b4186f6b6457e09190a35050565b7f9b779b17422d0df92223018b32b4d1fa46e071723d6817e2486d003becc55f005460020361078657604051633ee5aeb560e01b815260040160405180910390fd5b6001600160a01b03811681146107c357600080fd5b6000602082840312156108da57600080fd5b81356108e5816108b3565b9392505050565b600080604083850312156108ff57600080fd5b823561090a816108b3565b946020939093013593505050565b60006020828403121561092a57600080fd5b5051919050565b808202811582820484141761095657634e487b7160e01b600052601160045260246000fd5b92915050565b60008261097957634e487b7160e01b600052601260045260246000fd5b500490565b60006020828403121561099057600080fd5b81516108e5816108b3565b6000602082840312156109ad57600080fd5b815180151581146108e557600080fdfea26469706673582212200faf6a99a84115f479a593c1723ad9024c37474ff047c4983f771fa959ecc2b964736f6c63430008140033",
  "linkReferences": {},
  "deployedLinkReferences": {}
}