{
  "_format": "hh-sol-artifact-1",
  "contractName": "BondEscrow",
  "sourceName": "contracts/BondEscrow.sol",
  "abi": [
    {
      "inputs": [
        {
          "internalType": "address",
          "name": "usdc_",
          "type": "address"
        }
      ],
      "stateMutability": "nonpayable",
      "type": "constructor"
    },
    {
      "inputs": [],
      "name": "ReentrancyGuardReentrantCall",
      "type": "error"
    },
    {
      "anonymous": false,
      "inputs": [
        {
          "indexed": true,
          "internalType": "uint256",
          "name": "listingId",
          "type": "uint256"
        },
        {
          "indexed": true,
          "internalType": "address",
          "name": "seller",
          "type": "address"
        }
      ],
      "name": "ListingCancelled",
      "type": "event"
    },
    {
      "anonymous": false,
      "inputs": [
        {
          "indexed": true,
          "internalType": "uint256",
          "name": "listingId",
          "type": "uint256"
        },
        {
          "indexed": true,
          "internalType": "address",
          "name": "seller",
          "type": "address"
        },
        {
          "indexed": true,
          "internalType": "address",
          "name": "bondToken",
          "type": "address"
        },
        {
          "indexed": false,
          "internalType": "uint256",
          "name": "bondAmount",
          "type": "uint256"
        },
        {
          "indexed": false,
          "internalType": "uint256",
          "name": "usdcPrice",
          "type": "uint256"
        }
      ],
      "name": "ListingCreated",
      "type": "event"
    },
    {
      "anonymous": false,
      "inputs": [
        {
          "indexed": true,
          "internalType": "uint256",
          "name": "listingId",
          "type": "uint256"
        },
        {
          "indexed": true,
          "internalType": "address",
          "name": "buyer",
          "type": "address"
        },
        {
          "indexed": true,
          "internalType": "address",
          "name": "seller",
          "type": "address"
        },
        {
          "indexed": false,
          "internalType": "uint256",
          "name": "bondAmount",
          "type": "uint256"
        },
        {
          "indexed": false,
          "internalType": "uint256",
          "name": "usdcPrice",
          "type": "uint256"
        }
      ],
      "name": "ListingFilled",
      "type": "event"
    },
    {
      "inputs": [
        {
          "internalType": "uint256",
          "name": "listingId_",
          "type": "uint256"
        }
      ],
      "name": "buyListing",
      "outputs": [],
      "stateMutability": "nonpayable",
      "type": "function"
    },
    {
      "inputs": [
        {
          "internalType": "uint256",
          "name": "listingId_",
          "type": "uint256"
        }
      ],
      "name": "cancelListing",
      "outputs": [],
      "stateMutability": "nonpayable",
      "type": "function"
    },
    {
      "inputs": [
        {
          "internalType": "address",
          "name": "bondToken_",
          "type": "address"
        },
        {
          "internalType": "uint256",
          "name": "bondAmount_",
          "type": "uint256"
        },
        {
          "internalType": "uint256",
          "name": "usdcPrice_",
          "type": "uint256"
        }
      ],
      "name": "createListing",
      "outputs": [
        {
          "internalType": "uint256",
          "name": "listingId",
          "type": "uint256"
        }
      ],
      "stateMutability": "nonpayable",
      "type": "function"
    },
    {
      "inputs": [
        {
          "internalType": "uint256",
          "name": "listingId_",
          "type": "uint256"
        }
      ],
      "name": "getListing",
      "outputs": [
        {
          "internalType": "address",
          "name": "seller",
          "type": "address"
        },
        {
          "internalType": "address",
          "name": "bondToken",
          "type": "address"
        },
        {
          "internalType": "uint256",
          "name": "bondAmount",
          "type": "uint256"
        },
        {
          "internalType": "uint256",
          "name": "usdcPrice",
          "type": "uint256"
        },
        {
          "internalType": "bool",
          "name": "active",
          "type": "bool"
        }
      ],
      "stateMutability": "view",
      "type": "function"
    },
    {
      "inputs": [
        {
          "internalType": "uint256",
          "name": "",
          "type": "uint256"
        }
      ],
      "name": "listings",
      "outputs": [
        {
          "internalType": "address",
          "name": "seller",
          "type": "address"
        },
        {
          "internalType": "address",
          "name": "bondToken",
          "type": "address"
        },
        {
          "internalType": "uint256",
          "name": "bondAmount",
          "type": "uint256"
        },
        {
          "internalType": "uint256",
          "name": "usdcPrice",
          "type": "uint256"
        },
        {
          "internalType": "bool",
          "name": "active",
          "type": "bool"
        }
      ],
      "stateMutability": "view",
      "type": "function"
    },
    {
      "inputs": [],
      "name": "nextListingId",
      "outputs": [
        {
          "internalType": "uint256",
          "name": "",
          "type": "uint256"
        }
      ],
      "stateMutability": "view",
      "type": "function"
    },
    {
      "inputs": [],
      "name": "usdc",
      "outputs": [
        {
          "internalType": "contract IERC20",
          "name": "",
          "type": "address"
        }
      ],
      "stateMutability": "view",
      "type": "function"
    }
  ],
  "bytecode": "0x60a060405234801561001057600080fd5b50604051610bd5380380610bd583398101604081905261002f916100be565b60017f9b779b17422d0df92223018b32b4d1fa46e071723d6817e2486d003becc55f00556001600160a01b0381166100ad5760405162461bcd60e51b815260206004820152601460248201527f496e76616c696420555344432061646472657373000000000000000000000000604482015260640160405180910390fd5b6001600160a01b03166080526100ee565b6000602082840312156100d057600080fd5b81516001600160a01b03811681146100e757600080fd5b9392505050565b608051610ac56101106000396000818161016d015261078b0152610ac56000f3fe608060405234801561001057600080fd5b506004361061007d5760003560e01c80633e413bee1161005b5780633e413bee146101685780634884f459146101a7578063aaccf1ec146101ba578063de74e57b146101c357600080fd5b8063107a274a1461008257806324780c5614610132578063305a67a814610153575b600080fd5b6100f86100903660046109cc565b600090815260016020818152604092839020835160a08101855281546001600160a01b039081168083529483015416928101839052600282015494810185905260038201546060820181905260049092015460ff161515608090910181905292949193929091565b604080516001600160a01b0396871681529590941660208601529284019190915260608301521515608082015260a0015b60405180910390f35b6101456101403660046109e5565b610210565b604051908152602001610129565b6101666101613660046109cc565b6104d2565b005b61018f7f000000000000000000000000000000000000000000000000000000000000000081565b6040516001600160a01b039091168152602001610129565b6101666101b53660046109cc565b610691565b61014560005481565b6100f86101d13660046109cc565b6001602081905260009182526040909120805491810154600282015460038301546004909301546001600160a01b039485169490921692909160ff1685565b600061021a61097e565b6001600160a01b03841661026a5760405162461bcd60e51b815260206004820152601260248201527124b73b30b634b2103137b732103a37b5b2b760711b60448201526064015b60405180910390fd5b600083116102ba5760405162461bcd60e51b815260206004820152601c60248201527f426f6e6420616d6f756e74206d75737420626520706f736974697665000000006044820152606401610261565b600082116103035760405162461bcd60e51b81526020600482015260166024820152755072696365206d75737420626520706f73697469766560501b6044820152606401610261565b6040516323b872dd60e01b8152336004820152306024820152604481018490526001600160a01b038516906323b872dd906064016020604051808303816000875af1158015610356573d6000803e3d6000fd5b505050506040513d601f19601f8201168201806040525081019061037a9190610a26565b6103d25760405162461bcd60e51b8152602060048201526024808201527f426f6e64207472616e73666572206661696c6564202d20617070726f766520666044820152631a5c9cdd60e21b6064820152608401610261565b6000805490806103e183610a48565b909155506040805160a081018252338082526001600160a01b0388811660208085018281528587018b8152606087018b815260016080890181815260008c81528287528b902099518a546001600160a01b0319908116918a16919091178b559451918a018054909516919097161790925551600287015551600386015591516004909401805460ff19169415159490941790935583518881529081018790529394509092909184917f508c75a3cb42c068e54cf9e0b738921b4e2375725c5965ef4a110475606fc05a910160405180910390a46104cb6001600080516020610a7083398151915255565b9392505050565b6104da61097e565b6000818152600160205260409020600481015460ff166105315760405162461bcd60e51b81526020600482015260126024820152714c697374696e67206e6f742061637469766560701b6044820152606401610261565b80546001600160a01b0316331461057d5760405162461bcd60e51b815260206004820152601060248201526f4e6f7420796f7572206c697374696e6760801b6044820152606401610261565b6004818101805460ff1916905560018201548254600284015460405163a9059cbb60e01b81526001600160a01b03928316948101949094526024840152169063a9059cbb906044016020604051808303816000875af11580156105e4573d6000803e3d6000fd5b505050506040513d601f19601f820116820180604052508101906106089190610a26565b6106495760405162461bcd60e51b8152602060048201526012602482015271109bdb99081c995d1d5c9b8819985a5b195960721b6044820152606401610261565b604051339083907f8e25282255ab31897df2b0456bb993ac7f84d376861aefd84901d2d63a7428a290600090a35061068e6001600080516020610a7083398151915255565b50565b61069961097e565b6000818152600160205260409020600481015460ff166106f05760405162461bcd60e51b81526020600482015260126024820152714c697374696e67206e6f742061637469766560701b6044820152606401610261565b8054336001600160a01b039091160361074b5760405162461bcd60e51b815260206004820152601b60248201527f43616e6e6f742062757920796f7572206f776e206c697374696e6700000000006044820152606401610261565b6004818101805460ff19169055815460038301546040516323b872dd60e01b815233938101939093526001600160a01b03918216602484015260448301527f000000000000000000000000000000000000000000000000000000000000000016906323b872dd906064016020604051808303816000875af11580156107d4573d6000803e3d6000fd5b505050506040513d601f19601f820116820180604052508101906107f89190610a26565b6108505760405162461bcd60e51b815260206004820152602360248201527f55534443207061796d656e74206661696c6564202d20617070726f76652066696044820152621c9cdd60ea1b6064820152608401610261565b6001810154600282015460405163a9059cbb60e01b815233600482015260248101919091526001600160a01b039091169063a9059cbb906044016020604051808303816000875af11580156108a9573d6000803e3d6000fd5b505050506040513d601f19601f820116820180604052508101906108cd9190610a26565b6109105760405162461bcd60e51b8152602060048201526014602482015273109bdb99081d1c985b9cd9995c8819985a5b195960621b6044820152606401610261565b8054600282015460038301546040805192835260208301919091526001600160a01b0390921691339185917f757575d6529c251b90f6a93699d1a0d397b916fa6177cc6b11ceffd57b04b87f910160405180910390a45061068e6001600080516020610a7083398151915255565b61098661099a565b6002600080516020610a7083398151915255565b600080516020610a70833981519152546002036109ca57604051633ee5aeb560e01b815260040160405180910390fd5b565b6000602082840312156109de57600080fd5b5035919050565b6000806000606084860312156109fa57600080fd5b83356001600160a01b0381168114610a1157600080fd5b95602085013595506040909401359392505050565b600060208284031215610a3857600080fd5b815180151581146104cb57600080fd5b600060018201610a6857634e487b7160e01b600052601160045260246000fd5b506001019056fe9b779b17422d0df92223018b32b4d1fa46e071723d6817e2486d003becc55f00a2646970667358221220e3d8bde83edc5b488c5cbcaf801b9a28e504e21716f6191eb40a92db65f09e8e64736f6c63430008140033",
  "linkReferences": {},
  "deployedLinkReferences": {}
}